{
  "_format": "hh-sol-artifact-1",
  "contractName": "Reputation",
  "sourceName": "contracts/Reputation.sol",
  "abi": [
    {
      "inputs": [
        {
          "internalType": "address",
          "name": "_soulboundaddrs",
          "type": "address"
        }
      ],
      "stateMutability": "nonpayable",
      "type": "constructor"
    },
    {
      "inputs": [],
      "name": "Storage",
      "outputs": [],
      "stateMutability": "nonpayable",
      "type": "function"
    },
    {
      "inputs": [
        {
          "internalType": "address",
          "name": "",
          "type": "address"
        }
      ],
      "name": "addrPresent",
      "outputs": [
        {
          "internalType": "bool",
          "name": "",
          "type": "bool"
        }
      ],
      "stateMutability": "view",
      "type": "function"
    },
    {
      "inputs": [
        {
          "internalType": "address",
          "name": "",
          "type": "address"
        }
      ],
      "name": "addrToPersonId",
      "outputs": [
        {
          "internalType": "bytes32",
          "name": "",
          "type": "bytes32"
        }
      ],
      "stateMutability": "view",
      "type": "function"
    },
    {
      "inputs": [
        {
          "internalType": "address",
          "name": "_addr",
          "type": "address"
        }
      ],
      "name": "getIdByAddress",
      "outputs": [
        {
          "internalType": "bytes32",
          "name": "",
          "type": "bytes32"
        }
      ],
      "stateMutability": "view",
      "type": "function"
    },
    {
      "inputs": [
        {
          "internalType": "uint8",
          "name": "_accountProvider",
          "type": "uint8"
        },
        {
          "internalType": "bytes32",
          "name": "_id",
          "type": "bytes32"
        }
      ],
      "name": "getScore",
      "outputs": [
        {
          "internalType": "uint24",
          "name": "",
          "type": "uint24"
        }
      ],
      "stateMutability": "view",
      "type": "function"
    },
    {
      "inputs": [],
      "name": "getTokenURI",
      "outputs": [
        {
          "internalType": "string",
          "name": "",
          "type": "string"
        }
      ],
      "stateMutability": "view",
      "type": "function"
    },
    {
      "inputs": [
        {
          "internalType": "uint8",
          "name": "_accountProvider",
          "type": "uint8"
        },
        {
          "internalType": "string",
          "name": "_userId",
          "type": "string"
        }
      ],
      "name": "linkAccount",
      "outputs": [],
      "stateMutability": "nonpayable",
      "type": "function"
    },
    {
      "inputs": [
        {
          "internalType": "address",
          "name": "_addr",
          "type": "address"
        }
      ],
      "name": "linkAddress",
      "outputs": [],
      "stateMutability": "nonpayable",
      "type": "function"
    },
    {
      "inputs": [],
      "name": "owner",
      "outputs": [
        {
          "internalType": "address",
          "name": "",
          "type": "address"
        }
      ],
      "stateMutability": "view",
      "type": "function"
    },
    {
      "inputs": [
        {
          "internalType": "bytes32",
          "name": "",
          "type": "bytes32"
        }
      ],
      "name": "persons",
      "outputs": [
        {
          "internalType": "string",
          "name": "name",
          "type": "string"
        },
        {
          "internalType": "bytes32",
          "name": "Id",
          "type": "bytes32"
        }
      ],
      "stateMutability": "view",
      "type": "function"
    },
    {
      "inputs": [
        {
          "internalType": "string",
          "name": "_name",
          "type": "string"
        }
      ],
      "name": "resgister",
      "outputs": [
        {
          "internalType": "bytes32",
          "name": "id",
          "type": "bytes32"
        }
      ],
      "stateMutability": "nonpayable",
      "type": "function"
    },
    {
      "inputs": [
        {
          "internalType": "address",
          "name": "addr",
          "type": "address"
        }
      ],
      "name": "setOwner",
      "outputs": [],
      "stateMutability": "nonpayable",
      "type": "function"
    },
    {
      "inputs": [],
      "name": "soulbound",
      "outputs": [
        {
          "internalType": "contract Soulbound",
          "name": "",
          "type": "address"
        }
      ],
      "stateMutability": "view",
      "type": "function"
    },
    {
      "inputs": [
        {
          "internalType": "address",
          "name": "_addr",
          "type": "address"
        }
      ],
      "name": "unlinkAddress",
      "outputs": [],
      "stateMutability": "nonpayable",
      "type": "function"
    },
    {
      "inputs": [
        {
          "internalType": "uint8",
          "name": "_accountProvider",
          "type": "uint8"
        },
        {
          "internalType": "bytes32",
          "name": "_id",
          "type": "bytes32"
        },
        {
          "internalType": "uint24",
          "name": "_score",
          "type": "uint24"
        }
      ],
      "name": "updateScore",
      "outputs": [],
      "stateMutability": "nonpayable",
      "type": "function"
    }
  ],
  "bytecode": "0x60806040523480156200001157600080fd5b5060405162001d7738038062001d778339818101604052810190620000379190620000e9565b80600160006101000a81548173ffffffffffffffffffffffffffffffffffffffff021916908373ffffffffffffffffffffffffffffffffffffffff160217905550506200011b565b600080fd5b600073ffffffffffffffffffffffffffffffffffffffff82169050919050565b6000620000b18262000084565b9050919050565b620000c381620000a4565b8114620000cf57600080fd5b50565b600081519050620000e381620000b8565b92915050565b6000602082840312156200010257620001016200007f565b5b60006200011284828501620000d2565b91505092915050565b611c4c806200012b6000396000f3fe608060405234801561001057600080fd5b50600436106100f55760003560e01c80638da5cb5b11610097578063d873817011610066578063d873817014610271578063dd4198f4146102a1578063dff3b497146102d1578063ee3711be14610301576100f5565b80638da5cb5b146101fd578063b59284ac1461021b578063c7097f6214610237578063d4a1911614610253576100f5565b8063287977d6116100d3578063287977d6146101505780634315c65c1461016c57806351334a911461019c578063625d0be9146101cc576100f5565b80630b197fbc146100fa5780630fad0f511461011657806313af403514610134575b600080fd5b610114600480360381019061010f91906110db565b61030b565b005b61011e6104b6565b60405161012b91906111b6565b60405180910390f35b61014e6004803603810190610149919061120f565b6104dc565b005b61016a600480360381019061016591906112ad565b610573565b005b6101866004803603810190610181919061120f565b610634565b604051610193919061131b565b60405180910390f35b6101b660048036038101906101b19190611336565b610654565b6040516101c3919061138e565b60405180910390f35b6101e660048036038101906101e191906113a9565b610860565b6040516101f4929190611455565b60405180910390f35b61020561090c565b6040516102129190611494565b60405180910390f35b6102356004803603810190610230919061120f565b610930565b005b610251600480360381019061024c919061120f565b610a8e565b005b61025b610bf3565b60405161026891906114af565b60405180910390f35b61028b6004803603810190610286919061120f565b610c9c565b604051610298919061138e565b60405180910390f35b6102bb60048036038101906102b691906114d1565b610cb4565b6040516102c89190611520565b60405180910390f35b6102eb60048036038101906102e6919061120f565b610d4f565b6040516102f8919061138e565b60405180910390f35b610309610d98565b005b600460003373ffffffffffffffffffffffffffffffffffffffff1673ffffffffffffffffffffffffffffffffffffffff16815260200190815260200160002060009054906101000a900460ff16610397576040517f08c379a000000000000000000000000000000000000000000000000000000000815260040161038e90611587565b60405180910390fd5b6000600360003373ffffffffffffffffffffffffffffffffffffffff1673ffffffffffffffffffffffffffffffffffffffff16815260200190815260200160002054905060006002600083815260200190815260200160002090506103fa610f0f565b60008160000190151590811515815250508460ff16816020018181525050838160400181905250808260030160008760ff1660ff16815260200190815260200160002060008201518160000160006101000a81548160ff02191690831515021790555060208201518160010155604082015181600201908161047c91906117b3565b506060820151816003015560808201518160040160006101000a81548162ffffff021916908362ffffff1602179055509050505050505050565b600160009054906101000a900473ffffffffffffffffffffffffffffffffffffffff1681565b60008054906101000a900473ffffffffffffffffffffffffffffffffffffffff1673ffffffffffffffffffffffffffffffffffffffff163373ffffffffffffffffffffffffffffffffffffffff160361057057806000806101000a81548173ffffffffffffffffffffffffffffffffffffffff021916908373ffffffffffffffffffffffffffffffffffffffff1602179055505b50565b6000600260008481526020019081526020016000209050828160010154146105d0576040517f08c379a00000000000000000000000000000000000000000000000000000000081526004016105c7906118ab565b60405180910390fd5b60008160030160008660ff1660ff1681526020019081526020016000209050828160040160008282829054906101000a900462ffffff1661061191906118fa565b92506101000a81548162ffffff021916908362ffffff1602179055505050505050565b60046020528060005260406000206000915054906101000a900460ff1681565b6000600460003373ffffffffffffffffffffffffffffffffffffffff1673ffffffffffffffffffffffffffffffffffffffff16815260200190815260200160002060009054906101000a900460ff16156106e3576040517f08c379a00000000000000000000000000000000000000000000000000000000081526004016106da9061197d565b60405180910390fd5b33436040516020016106f69291906119ac565b60405160208183030381529060405280519060200120905080600260008381526020019081526020016000206001018190555060026000828152602001908152602001600020600201339080600181540180825580915050600190039060005260206000200160009091909190916101000a81548173ffffffffffffffffffffffffffffffffffffffff021916908373ffffffffffffffffffffffffffffffffffffffff160217905550816002600083815260200190815260200160002060000190816107c391906117b3565b506107ce3382610dda565b600160009054906101000a900473ffffffffffffffffffffffffffffffffffffffff1673ffffffffffffffffffffffffffffffffffffffff1663d204c45e336040518263ffffffff1660e01b81526004016108299190611a6d565b600060405180830381600087803b15801561084357600080fd5b505af1158015610857573d6000803e3d6000fd5b50505050919050565b6002602052806000526040600020600091509050806000018054610883906115d6565b80601f01602080910402602001604051908101604052809291908181526020018280546108af906115d6565b80156108fc5780601f106108d1576101008083540402835291602001916108fc565b820191906000526020600020905b8154815290600101906020018083116108df57829003601f168201915b5050505050908060010154905082565b60008054906101000a900473ffffffffffffffffffffffffffffffffffffffff1681565b600460003373ffffffffffffffffffffffffffffffffffffffff1673ffffffffffffffffffffffffffffffffffffffff16815260200190815260200160002060009054906101000a900460ff166109bc576040517f08c379a00000000000000000000000000000000000000000000000000000000081526004016109b390611587565b60405180910390fd5b6000600360008373ffffffffffffffffffffffffffffffffffffffff1673ffffffffffffffffffffffffffffffffffffffff16815260200190815260200160002054905080600360003373ffffffffffffffffffffffffffffffffffffffff1673ffffffffffffffffffffffffffffffffffffffff1681526020019081526020016000205403610a81576040517f08c379a0000000000000000000000000000000000000000000000000000000008152600401610a78906118ab565b60405180910390fd5b610a8a82610e7a565b5050565b600460003373ffffffffffffffffffffffffffffffffffffffff1673ffffffffffffffffffffffffffffffffffffffff16815260200190815260200160002060009054906101000a900460ff16610b1a576040517f08c379a0000000000000000000000000000000000000000000000000000000008152600401610b1190611587565b60405180910390fd5b600460008273ffffffffffffffffffffffffffffffffffffffff1673ffffffffffffffffffffffffffffffffffffffff16815260200190815260200160002060009054906101000a900460ff1615610ba7576040517f08c379a0000000000000000000000000000000000000000000000000000000008152600401610b9e90611ae7565b60405180910390fd5b610bf081600360008473ffffffffffffffffffffffffffffffffffffffff1673ffffffffffffffffffffffffffffffffffffffff16815260200190815260200160002054610dda565b50565b6060600160009054906101000a900473ffffffffffffffffffffffffffffffffffffffff1673ffffffffffffffffffffffffffffffffffffffff1663c87b56dd60006040518263ffffffff1660e01b8152600401610c519190611b42565b600060405180830381865afa158015610c6e573d6000803e3d6000fd5b505050506040513d6000823e3d601f19601f82011682018060405250810190610c979190611bcd565b905090565b60036020528060005260406000206000915090505481565b60008060026000848152602001908152602001600020905082816001015414610d12576040517f08c379a0000000000000000000000000000000000000000000000000000000008152600401610d09906118ab565b60405180910390fd5b60008160030160008660ff1660ff16815260200190815260200160002090508060040160009054906101000a900462ffffff169250505092915050565b6000600360008373ffffffffffffffffffffffffffffffffffffffff1673ffffffffffffffffffffffffffffffffffffffff168152602001908152602001600020549050919050565b336000806101000a81548173ffffffffffffffffffffffffffffffffffffffff021916908373ffffffffffffffffffffffffffffffffffffffff160217905550565b6001600460008473ffffffffffffffffffffffffffffffffffffffff1673ffffffffffffffffffffffffffffffffffffffff16815260200190815260200160002060006101000a81548160ff02191690831515021790555080600360008473ffffffffffffffffffffffffffffffffffffffff1673ffffffffffffffffffffffffffffffffffffffff168152602001908152602001600020819055505050565b600460008273ffffffffffffffffffffffffffffffffffffffff1673ffffffffffffffffffffffffffffffffffffffff16815260200190815260200160002060006101000a81549060ff0219169055600360008273ffffffffffffffffffffffffffffffffffffffff1673ffffffffffffffffffffffffffffffffffffffff1681526020019081526020016000206000905550565b6040518060a00160405280600015158152602001600081526020016060815260200160008019168152602001600062ffffff1681525090565b6000604051905090565b600080fd5b600080fd5b600060ff82169050919050565b610f7281610f5c565b8114610f7d57600080fd5b50565b600081359050610f8f81610f69565b92915050565b600080fd5b600080fd5b6000601f19601f8301169050919050565b7f4e487b7100000000000000000000000000000000000000000000000000000000600052604160045260246000fd5b610fe882610f9f565b810181811067ffffffffffffffff8211171561100757611006610fb0565b5b80604052505050565b600061101a610f48565b90506110268282610fdf565b919050565b600067ffffffffffffffff82111561104657611045610fb0565b5b61104f82610f9f565b9050602081019050919050565b82818337600083830152505050565b600061107e6110798461102b565b611010565b90508281526020810184848401111561109a57611099610f9a565b5b6110a584828561105c565b509392505050565b600082601f8301126110c2576110c1610f95565b5b81356110d284826020860161106b565b91505092915050565b600080604083850312156110f2576110f1610f52565b5b600061110085828601610f80565b925050602083013567ffffffffffffffff81111561112157611120610f57565b5b61112d858286016110ad565b9150509250929050565b600073ffffffffffffffffffffffffffffffffffffffff82169050919050565b6000819050919050565b600061117c61117761117284611137565b611157565b611137565b9050919050565b600061118e82611161565b9050919050565b60006111a082611183565b9050919050565b6111b081611195565b82525050565b60006020820190506111cb60008301846111a7565b92915050565b60006111dc82611137565b9050919050565b6111ec816111d1565b81146111f757600080fd5b50565b600081359050611209816111e3565b92915050565b60006020828403121561122557611224610f52565b5b6000611233848285016111fa565b91505092915050565b6000819050919050565b61124f8161123c565b811461125a57600080fd5b50565b60008135905061126c81611246565b92915050565b600062ffffff82169050919050565b61128a81611272565b811461129557600080fd5b50565b6000813590506112a781611281565b92915050565b6000806000606084860312156112c6576112c5610f52565b5b60006112d486828701610f80565b93505060206112e58682870161125d565b92505060406112f686828701611298565b9150509250925092565b60008115159050919050565b61131581611300565b82525050565b6000602082019050611330600083018461130c565b92915050565b60006020828403121561134c5761134b610f52565b5b600082013567ffffffffffffffff81111561136a57611369610f57565b5b611376848285016110ad565b91505092915050565b6113888161123c565b82525050565b60006020820190506113a3600083018461137f565b92915050565b6000602082840312156113bf576113be610f52565b5b60006113cd8482850161125d565b91505092915050565b600081519050919050565b600082825260208201905092915050565b60005b838110156114105780820151818401526020810190506113f5565b60008484015250505050565b6000611427826113d6565b61143181856113e1565b93506114418185602086016113f2565b61144a81610f9f565b840191505092915050565b6000604082019050818103600083015261146f818561141c565b905061147e602083018461137f565b9392505050565b61148e816111d1565b82525050565b60006020820190506114a96000830184611485565b92915050565b600060208201905081810360008301526114c9818461141c565b905092915050565b600080604083850312156114e8576114e7610f52565b5b60006114f685828601610f80565b92505060206115078582860161125d565b9150509250929050565b61151a81611272565b82525050565b60006020820190506115356000830184611511565b92915050565b7f53686f756c642062652061207573657220000000000000000000000000000000600082015250565b60006115716011836113e1565b915061157c8261153b565b602082019050919050565b600060208201905081810360008301526115a081611564565b9050919050565b7f4e487b7100000000000000000000000000000000000000000000000000000000600052602260045260246000fd5b600060028204905060018216806115ee57607f821691505b602082108103611601576116006115a7565b5b50919050565b60008190508160005260206000209050919050565b60006020601f8301049050919050565b600082821b905092915050565b6000600883026116697fffffffffffffffffffffffffffffffffffffffffffffffffffffffffffffffff8261162c565b611673868361162c565b95508019841693508086168417925050509392505050565b6000819050919050565b60006116b06116ab6116a68461168b565b611157565b61168b565b9050919050565b6000819050919050565b6116ca83611695565b6116de6116d6826116b7565b848454611639565b825550505050565b600090565b6116f36116e6565b6116fe8184846116c1565b505050565b5b81811015611722576117176000826116eb565b600181019050611704565b5050565b601f8211156117675761173881611607565b6117418461161c565b81016020851015611750578190505b61176461175c8561161c565b830182611703565b50505b505050565b600082821c905092915050565b600061178a6000198460080261176c565b1980831691505092915050565b60006117a38383611779565b9150826002028217905092915050565b6117bc826113d6565b67ffffffffffffffff8111156117d5576117d4610fb0565b5b6117df82546115d6565b6117ea828285611726565b600060209050601f83116001811461181d576000841561180b578287015190505b6118158582611797565b86555061187d565b601f19841661182b86611607565b60005b828110156118535784890151825560018201915060208501945060208101905061182e565b86831015611870578489015161186c601f891682611779565b8355505b6001600288020188555050505b505050505050565b50565b60006118956000836113e1565b91506118a082611885565b600082019050919050565b600060208201905081810360008301526118c481611888565b9050919050565b7f4e487b7100000000000000000000000000000000000000000000000000000000600052601160045260246000fd5b600061190582611272565b915061191083611272565b9250828201905062ffffff81111561192b5761192a6118cb565b5b92915050565b7f416c726561647920526567697374657265640000000000000000000000000000600082015250565b60006119676012836113e1565b915061197282611931565b602082019050919050565b600060208201905081810360008301526119968161195a565b9050919050565b6119a68161168b565b82525050565b60006040820190506119c16000830185611485565b6119ce602083018461199d565b9392505050565b7f68747470733a2f2f676174657761792e70696e6174612e636c6f75642f69706660008201527f732f516d50674e53576d736533595437796e7a45616d463675576e4c4e38426960208201527f4b32574268377879416e48314574574c00000000000000000000000000000000604082015250565b6000611a576050836113e1565b9150611a62826119d5565b606082019050919050565b6000604082019050611a826000830184611485565b8181036020830152611a9381611a4a565b905092915050565b7f4164647265737320697320616c7265616479204c696e6b656400000000000000600082015250565b6000611ad16019836113e1565b9150611adc82611a9b565b602082019050919050565b60006020820190508181036000830152611b0081611ac4565b9050919050565b6000819050919050565b6000611b2c611b27611b2284611b07565b611157565b61168b565b9050919050565b611b3c81611b11565b82525050565b6000602082019050611b576000830184611b33565b92915050565b6000611b70611b6b8461102b565b611010565b905082815260208101848484011115611b8c57611b8b610f9a565b5b611b978482856113f2565b509392505050565b600082601f830112611bb457611bb3610f95565b5b8151611bc4848260208601611b5d565b91505092915050565b600060208284031215611be357611be2610f52565b5b600082015167ffffffffffffffff811115611c0157611c00610f57565b5b611c0d84828501611b9f565b9150509291505056fea26469706673582212202d95395ce366c319ea11b34ef3f5fab97fba030b9069756db616ade1dbad5f4764736f6c63430008180033",
  "linkReferences": {},
  "deployedLinkReferences": {}
}