{
  "_format": "hh-sol-artifact-1",
  "contractName": "Soulbound",
  "sourceName": "contracts/SoulBound.sol",
  "abi": [
    {
      "inputs": [],
      "stateMutability": "nonpayable",
      "type": "constructor"
    },
    {
      "anonymous": false,
      "inputs": [
        {
          "indexed": true,
          "internalType": "address",
          "name": "owner",
          "type": "address"
        },
        {
          "indexed": true,
          "internalType": "address",
          "name": "approved",
          "type": "address"
        },
        {
          "indexed": true,
          "internalType": "uint256",
          "name": "tokenId",
          "type": "uint256"
        }
      ],
      "name": "Approval",
      "type": "event"
    },
    {
      "anonymous": false,
      "inputs": [
        {
          "indexed": true,
          "internalType": "address",
          "name": "owner",
          "type": "address"
        },
        {
          "indexed": true,
          "internalType": "address",
          "name": "operator",
          "type": "address"
        },
        {
          "indexed": false,
          "internalType": "bool",
          "name": "approved",
          "type": "bool"
        }
      ],
      "name": "ApprovalForAll",
      "type": "event"
    },
    {
      "anonymous": false,
      "inputs": [
        {
          "indexed": true,
          "internalType": "address",
          "name": "to",
          "type": "address"
        },
        {
          "indexed": true,
          "internalType": "uint256",
          "name": "tokenId",
          "type": "uint256"
        }
      ],
      "name": "Attest",
      "type": "event"
    },
    {
      "anonymous": false,
      "inputs": [
        {
          "indexed": true,
          "internalType": "address",
          "name": "to",
          "type": "address"
        },
        {
          "indexed": true,
          "internalType": "uint256",
          "name": "tokenId",
          "type": "uint256"
        }
      ],
      "name": "Revoke",
      "type": "event"
    },
    {
      "anonymous": false,
      "inputs": [
        {
          "indexed": true,
          "internalType": "address",
          "name": "from",
          "type": "address"
        },
        {
          "indexed": true,
          "internalType": "address",
          "name": "to",
          "type": "address"
        },
        {
          "indexed": true,
          "internalType": "uint256",
          "name": "tokenId",
          "type": "uint256"
        }
      ],
      "name": "Transfer",
      "type": "event"
    },
    {
      "inputs": [],
      "name": "_tokenIdCounter",
      "outputs": [
        {
          "internalType": "uint256",
          "name": "",
          "type": "uint256"
        }
      ],
      "stateMutability": "view",
      "type": "function"
    },
    {
      "inputs": [
        {
          "internalType": "address",
          "name": "to",
          "type": "address"
        },
        {
          "internalType": "uint256",
          "name": "tokenId",
          "type": "uint256"
        }
      ],
      "name": "approve",
      "outputs": [],
      "stateMutability": "nonpayable",
      "type": "function"
    },
    {
      "inputs": [
        {
          "internalType": "address",
          "name": "owner",
          "type": "address"
        }
      ],
      "name": "balanceOf",
      "outputs": [
        {
          "internalType": "uint256",
          "name": "",
          "type": "uint256"
        }
      ],
      "stateMutability": "view",
      "type": "function"
    },
    {
      "inputs": [
        {
          "internalType": "uint256",
          "name": "tokenId",
          "type": "uint256"
        }
      ],
      "name": "burn",
      "outputs": [],
      "stateMutability": "nonpayable",
      "type": "function"
    },
    {
      "inputs": [
        {
          "internalType": "uint256",
          "name": "tokenId",
          "type": "uint256"
        }
      ],
      "name": "getApproved",
      "outputs": [
        {
          "internalType": "address",
          "name": "",
          "type": "address"
        }
      ],
      "stateMutability": "view",
      "type": "function"
    },
    {
      "inputs": [
        {
          "internalType": "address",
          "name": "owner",
          "type": "address"
        },
        {
          "internalType": "address",
          "name": "operator",
          "type": "address"
        }
      ],
      "name": "isApprovedForAll",
      "outputs": [
        {
          "internalType": "bool",
          "name": "",
          "type": "bool"
        }
      ],
      "stateMutability": "view",
      "type": "function"
    },
    {
      "inputs": [],
      "name": "name",
      "outputs": [
        {
          "internalType": "string",
          "name": "",
          "type": "string"
        }
      ],
      "stateMutability": "view",
      "type": "function"
    },
    {
      "inputs": [
        {
          "internalType": "uint256",
          "name": "tokenId",
          "type": "uint256"
        }
      ],
      "name": "ownerOf",
      "outputs": [
        {
          "internalType": "address",
          "name": "",
          "type": "address"
        }
      ],
      "stateMutability": "view",
      "type": "function"
    },
    {
      "inputs": [
        {
          "internalType": "uint256",
          "name": "tokenId",
          "type": "uint256"
        }
      ],
      "name": "revoke",
      "outputs": [],
      "stateMutability": "nonpayable",
      "type": "function"
    },
    {
      "inputs": [
        {
          "internalType": "address",
          "name": "to",
          "type": "address"
        },
        {
          "internalType": "string",
          "name": "uri",
          "type": "string"
        }
      ],
      "name": "safeMint",
      "outputs": [],
      "stateMutability": "nonpayable",
      "type": "function"
    },
    {
      "inputs": [
        {
          "internalType": "address",
          "name": "from",
          "type": "address"
        },
        {
          "internalType": "address",
          "name": "to",
          "type": "address"
        },
        {
          "internalType": "uint256",
          "name": "tokenId",
          "type": "uint256"
        }
      ],
      "name": "safeTransferFrom",
      "outputs": [],
      "stateMutability": "nonpayable",
      "type": "function"
    },
    {
      "inputs": [
        {
          "internalType": "address",
          "name": "from",
          "type": "address"
        },
        {
          "internalType": "address",
          "name": "to",
          "type": "address"
        },
        {
          "internalType": "uint256",
          "name": "tokenId",
          "type": "uint256"
        },
        {
          "internalType": "bytes",
          "name": "data",
          "type": "bytes"
        }
      ],
      "name": "safeTransferFrom",
      "outputs": [],
      "stateMutability": "nonpayable",
      "type": "function"
    },
    {
      "inputs": [
        {
          "internalType": "address",
          "name": "operator",
          "type": "address"
        },
        {
          "internalType": "bool",
          "name": "approved",
          "type": "bool"
        }
      ],
      "name": "setApprovalForAll",
      "outputs": [],
      "stateMutability": "nonpayable",
      "type": "function"
    },
    {
      "inputs": [
        {
          "internalType": "bytes4",
          "name": "interfaceId",
          "type": "bytes4"
        }
      ],
      "name": "supportsInterface",
      "outputs": [
        {
          "internalType": "bool",
          "name": "",
          "type": "bool"
        }
      ],
      "stateMutability": "view",
      "type": "function"
    },
    {
      "inputs": [],
      "name": "symbol",
      "outputs": [
        {
          "internalType": "string",
          "name": "",
          "type": "string"
        }
      ],
      "stateMutability": "view",
      "type": "function"
    },
    {
      "inputs": [
        {
          "internalType": "uint256",
          "name": "tokenId",
          "type": "uint256"
        }
      ],
      "name": "tokenURI",
      "outputs": [
        {
          "internalType": "string",
          "name": "",
          "type": "string"
        }
      ],
      "stateMutability": "view",
      "type": "function"
    },
    {
      "inputs": [
        {
          "internalType": "address",
          "name": "from",
          "type": "address"
        },
        {
          "internalType": "address",
          "name": "to",
          "type": "address"
        },
        {
          "internalType": "uint256",
          "name": "tokenId",
          "type": "uint256"
        }
      ],
      "name": "transferFrom",
      "outputs": [],
      "stateMutability": "nonpayable",
      "type": "function"
    }
  ],
  "bytecode": "0x60806040523480156200001157600080fd5b506040518060400160405280600981526020017f536f756c426f756e6400000000000000000000000000000000000000000000008152506040518060400160405280600381526020017f534254000000000000000000000000000000000000000000000000000000000081525081600090816200008f919062000324565b508060019081620000a1919062000324565b5050506200040b565b600081519050919050565b7f4e487b7100000000000000000000000000000000000000000000000000000000600052604160045260246000fd5b7f4e487b7100000000000000000000000000000000000000000000000000000000600052602260045260246000fd5b600060028204905060018216806200012c57607f821691505b602082108103620001425762000141620000e4565b5b50919050565b60008190508160005260206000209050919050565b60006020601f8301049050919050565b600082821b905092915050565b600060088302620001ac7fffffffffffffffffffffffffffffffffffffffffffffffffffffffffffffffff826200016d565b620001b886836200016d565b95508019841693508086168417925050509392505050565b6000819050919050565b6000819050919050565b600062000205620001ff620001f984620001d0565b620001da565b620001d0565b9050919050565b6000819050919050565b6200022183620001e4565b6200023962000230826200020c565b8484546200017a565b825550505050565b600090565b6200025062000241565b6200025d81848462000216565b505050565b5b8181101562000285576200027960008262000246565b60018101905062000263565b5050565b601f821115620002d4576200029e8162000148565b620002a9846200015d565b81016020851015620002b9578190505b620002d1620002c8856200015d565b83018262000262565b50505b505050565b600082821c905092915050565b6000620002f960001984600802620002d9565b1980831691505092915050565b6000620003148383620002e6565b9150826002028217905092915050565b6200032f82620000aa565b67ffffffffffffffff8111156200034b576200034a620000b5565b5b62000357825462000113565b6200036482828562000289565b600060209050601f8311600181146200039c576000841562000387578287015190505b62000393858262000306565b86555062000403565b601f198416620003ac8662000148565b60005b82811015620003d657848901518255600182019150602085019450602081019050620003af565b86831015620003f65784890151620003f2601f891682620002e6565b8355505b6001600288020188555050505b505050505050565b61300b806200041b6000396000f3fe608060405234801561001057600080fd5b506004361061010b5760003560e01c80636352211e116100a2578063a22cb46511610071578063a22cb465146102b6578063b88d4fde146102d2578063c87b56dd146102ee578063d204c45e1461031e578063e985e9c51461033a5761010b565b80636352211e1461021a57806370a082311461024a57806384c4bd4b1461027a57806395d89b41146102985761010b565b806320c5429b116100de57806320c5429b146101aa57806323b872dd146101c657806342842e0e146101e257806342966c68146101fe5761010b565b806301ffc9a71461011057806306fdde0314610140578063081812fc1461015e578063095ea7b31461018e575b600080fd5b61012a60048036038101906101259190611c8c565b61036a565b6040516101379190611cd4565b60405180910390f35b61014861044c565b6040516101559190611d7f565b60405180910390f35b61017860048036038101906101739190611dd7565b6104de565b6040516101859190611e45565b60405180910390f35b6101a860048036038101906101a39190611e8c565b610524565b005b6101c460048036038101906101bf9190611dd7565b61063b565b005b6101e060048036038101906101db9190611ecc565b610647565b005b6101fc60048036038101906101f79190611ecc565b6106a7565b005b61021860048036038101906102139190611dd7565b6106c7565b005b610234600480360381019061022f9190611dd7565b610749565b6040516102419190611e45565b60405180910390f35b610264600480360381019061025f9190611f1f565b6107fa565b6040516102719190611f5b565b60405180910390f35b6102826108b1565b60405161028f9190611f5b565b60405180910390f35b6102a06108b7565b6040516102ad9190611d7f565b60405180910390f35b6102d060048036038101906102cb9190611fa2565b610949565b005b6102ec60048036038101906102e79190612117565b61095f565b005b61030860048036038101906103039190611dd7565b6109c1565b6040516103159190611d7f565b60405180910390f35b6103386004803603810190610333919061223b565b6109d3565b005b610354600480360381019061034f9190612297565b610a0d565b6040516103619190611cd4565b60405180910390f35b60007f80ac58cd000000000000000000000000000000000000000000000000000000007bffffffffffffffffffffffffffffffffffffffffffffffffffffffff1916827bffffffffffffffffffffffffffffffffffffffffffffffffffffffff1916148061043557507f5b5e139f000000000000000000000000000000000000000000000000000000007bffffffffffffffffffffffffffffffffffffffffffffffffffffffff1916827bffffffffffffffffffffffffffffffffffffffffffffffffffffffff1916145b80610445575061044482610aa1565b5b9050919050565b60606000805461045b90612306565b80601f016020809104026020016040519081016040528092919081815260200182805461048790612306565b80156104d45780601f106104a9576101008083540402835291602001916104d4565b820191906000526020600020905b8154815290600101906020018083116104b757829003601f168201915b5050505050905090565b60006104e982610b0b565b6004600083815260200190815260200160002060009054906101000a900473ffffffffffffffffffffffffffffffffffffffff169050919050565b600061052f82610749565b90508073ffffffffffffffffffffffffffffffffffffffff168373ffffffffffffffffffffffffffffffffffffffff160361059f576040517f08c379a0000000000000000000000000000000000000000000000000000000008152600401610596906123a9565b60405180910390fd5b8073ffffffffffffffffffffffffffffffffffffffff166105be610b56565b73ffffffffffffffffffffffffffffffffffffffff1614806105ed57506105ec816105e7610b56565b610a0d565b5b61062c576040517f08c379a00000000000000000000000000000000000000000000000000000000081526004016106239061243b565b60405180910390fd5b6106368383610b5e565b505050565b61064481610c17565b50565b610658610652610b56565b82610c23565b610697576040517f08c379a000000000000000000000000000000000000000000000000000000000815260040161068e906124cd565b60405180910390fd5b6106a2838383610cb8565b505050565b6106c28383836040518060200160405280600081525061095f565b505050565b3373ffffffffffffffffffffffffffffffffffffffff166106e782610749565b73ffffffffffffffffffffffffffffffffffffffff161461073d576040517f08c379a00000000000000000000000000000000000000000000000000000000081526004016107349061255f565b60405180910390fd5b61074681610c17565b50565b6000806002600084815260200190815260200160002060009054906101000a900473ffffffffffffffffffffffffffffffffffffffff169050600073ffffffffffffffffffffffffffffffffffffffff168173ffffffffffffffffffffffffffffffffffffffff16036107f1576040517f08c379a00000000000000000000000000000000000000000000000000000000081526004016107e8906125cb565b60405180910390fd5b80915050919050565b60008073ffffffffffffffffffffffffffffffffffffffff168273ffffffffffffffffffffffffffffffffffffffff160361086a576040517f08c379a00000000000000000000000000000000000000000000000000000000081526004016108619061265d565b60405180910390fd5b600360008373ffffffffffffffffffffffffffffffffffffffff1673ffffffffffffffffffffffffffffffffffffffff168152602001908152602001600020549050919050565b60075481565b6060600180546108c690612306565b80601f01602080910402602001604051908101604052809291908181526020018280546108f290612306565b801561093f5780601f106109145761010080835404028352916020019161093f565b820191906000526020600020905b81548152906001019060200180831161092257829003601f168201915b5050505050905090565b61095b610954610b56565b8383610f1e565b5050565b61097061096a610b56565b83610c23565b6109af576040517f08c379a00000000000000000000000000000000000000000000000000000000081526004016109a6906124cd565b60405180910390fd5b6109bb8484848461108a565b50505050565b60606109cc826110e6565b9050919050565b600060075490506001600760008282546109ed91906126ac565b925050819055506109fe83826111f8565b610a088183611216565b505050565b6000600560008473ffffffffffffffffffffffffffffffffffffffff1673ffffffffffffffffffffffffffffffffffffffff16815260200190815260200160002060008373ffffffffffffffffffffffffffffffffffffffff1673ffffffffffffffffffffffffffffffffffffffff16815260200190815260200160002060009054906101000a900460ff16905092915050565b60007f01ffc9a7000000000000000000000000000000000000000000000000000000007bffffffffffffffffffffffffffffffffffffffffffffffffffffffff1916827bffffffffffffffffffffffffffffffffffffffffffffffffffffffff1916149050919050565b610b1481611283565b610b53576040517f08c379a0000000000000000000000000000000000000000000000000000000008152600401610b4a906125cb565b60405180910390fd5b50565b600033905090565b816004600083815260200190815260200160002060006101000a81548173ffffffffffffffffffffffffffffffffffffffff021916908373ffffffffffffffffffffffffffffffffffffffff160217905550808273ffffffffffffffffffffffffffffffffffffffff16610bd183610749565b73ffffffffffffffffffffffffffffffffffffffff167f8c5be1e5ebec7d5bd14f71427d1e84f3dd0314c0f7b2291e5b200ac8c7c3b92560405160405180910390a45050565b610c20816112ef565b50565b600080610c2f83610749565b90508073ffffffffffffffffffffffffffffffffffffffff168473ffffffffffffffffffffffffffffffffffffffff161480610c715750610c708185610a0d565b5b80610caf57508373ffffffffffffffffffffffffffffffffffffffff16610c97846104de565b73ffffffffffffffffffffffffffffffffffffffff16145b91505092915050565b8273ffffffffffffffffffffffffffffffffffffffff16610cd882610749565b73ffffffffffffffffffffffffffffffffffffffff1614610d2e576040517f08c379a0000000000000000000000000000000000000000000000000000000008152600401610d2590612752565b60405180910390fd5b600073ffffffffffffffffffffffffffffffffffffffff168273ffffffffffffffffffffffffffffffffffffffff1603610d9d576040517f08c379a0000000000000000000000000000000000000000000000000000000008152600401610d94906127e4565b60405180910390fd5b610da8838383611342565b610db3600082610b5e565b6001600360008573ffffffffffffffffffffffffffffffffffffffff1673ffffffffffffffffffffffffffffffffffffffff1681526020019081526020016000206000828254610e039190612804565b925050819055506001600360008473ffffffffffffffffffffffffffffffffffffffff1673ffffffffffffffffffffffffffffffffffffffff1681526020019081526020016000206000828254610e5a91906126ac565b92505081905550816002600083815260200190815260200160002060006101000a81548173ffffffffffffffffffffffffffffffffffffffff021916908373ffffffffffffffffffffffffffffffffffffffff160217905550808273ffffffffffffffffffffffffffffffffffffffff168473ffffffffffffffffffffffffffffffffffffffff167fddf252ad1be2c89b69c2b068fc378daa952ba7f163c4a11628f55a4df523b3ef60405160405180910390a4610f198383836113ed565b505050565b8173ffffffffffffffffffffffffffffffffffffffff168373ffffffffffffffffffffffffffffffffffffffff1603610f8c576040517f08c379a0000000000000000000000000000000000000000000000000000000008152600401610f8390612884565b60405180910390fd5b80600560008573ffffffffffffffffffffffffffffffffffffffff1673ffffffffffffffffffffffffffffffffffffffff16815260200190815260200160002060008473ffffffffffffffffffffffffffffffffffffffff1673ffffffffffffffffffffffffffffffffffffffff16815260200190815260200160002060006101000a81548160ff0219169083151502179055508173ffffffffffffffffffffffffffffffffffffffff168373ffffffffffffffffffffffffffffffffffffffff167f17307eab39ab6107e8899845ad3d59bd9653f200f220920489ca2b5937696c318360405161107d9190611cd4565b60405180910390a3505050565b611095848484610cb8565b6110a1848484846114e9565b6110e0576040517f08c379a00000000000000000000000000000000000000000000000000000000081526004016110d790612916565b60405180910390fd5b50505050565b60606110f182610b0b565b600060066000848152602001908152602001600020805461111190612306565b80601f016020809104026020016040519081016040528092919081815260200182805461113d90612306565b801561118a5780601f1061115f5761010080835404028352916020019161118a565b820191906000526020600020905b81548152906001019060200180831161116d57829003601f168201915b50505050509050600061119b611670565b905060008151036111b05781925050506111f3565b6000825111156111e55780826040516020016111cd929190612972565b604051602081830303815290604052925050506111f3565b6111ee84611687565b925050505b919050565b6112128282604051806020016040528060008152506116ef565b5050565b61121f82611283565b61125e576040517f08c379a000000000000000000000000000000000000000000000000000000000815260040161125590612a08565b60405180910390fd5b8060066000848152602001908152602001600020908161127e9190612bd4565b505050565b60008073ffffffffffffffffffffffffffffffffffffffff166002600084815260200190815260200160002060009054906101000a900473ffffffffffffffffffffffffffffffffffffffff1673ffffffffffffffffffffffffffffffffffffffff1614159050919050565b6112f88161174a565b600060066000838152602001908152602001600020805461131890612306565b90501461133f5760066000828152602001908152602001600020600061133e9190611bc3565b5b50565b600073ffffffffffffffffffffffffffffffffffffffff168373ffffffffffffffffffffffffffffffffffffffff1614806113a95750600073ffffffffffffffffffffffffffffffffffffffff168273ffffffffffffffffffffffffffffffffffffffff16145b6113e8576040517f08c379a00000000000000000000000000000000000000000000000000000000081526004016113df90612cf2565b60405180910390fd5b505050565b600073ffffffffffffffffffffffffffffffffffffffff168373ffffffffffffffffffffffffffffffffffffffff160361146a57808273ffffffffffffffffffffffffffffffffffffffff167fe9274a84b19e9428826de6bae8c48329354f8f0e73f771b97cae2d9dccd45a2760405160405180910390a36114e4565b600073ffffffffffffffffffffffffffffffffffffffff168273ffffffffffffffffffffffffffffffffffffffff16036114e357808273ffffffffffffffffffffffffffffffffffffffff167fec9ab91322523c899ede7830ec9bfc992b5981cdcc27b91162fb23de5791117b60405160405180910390a35b5b505050565b600061150a8473ffffffffffffffffffffffffffffffffffffffff16611867565b15611663578373ffffffffffffffffffffffffffffffffffffffff1663150b7a02611533610b56565b8786866040518563ffffffff1660e01b81526004016115559493929190612d67565b6020604051808303816000875af192505050801561159157506040513d601f19601f8201168201806040525081019061158e9190612dc8565b60015b611613573d80600081146115c1576040519150601f19603f3d011682016040523d82523d6000602084013e6115c6565b606091505b50600081510361160b576040517f08c379a000000000000000000000000000000000000000000000000000000000815260040161160290612916565b60405180910390fd5b805181602001fd5b63150b7a0260e01b7bffffffffffffffffffffffffffffffffffffffffffffffffffffffff1916817bffffffffffffffffffffffffffffffffffffffffffffffffffffffff191614915050611668565b600190505b949350505050565b606060405180602001604052806000815250905090565b606061169282610b0b565b600061169c611670565b905060008151116116bc57604051806020016040528060008152506116e7565b806116c68461188a565b6040516020016116d7929190612972565b6040516020818303038152906040525b915050919050565b6116f983836119ea565b61170660008484846114e9565b611745576040517f08c379a000000000000000000000000000000000000000000000000000000000815260040161173c90612916565b60405180910390fd5b505050565b600061175582610749565b905061176381600084611342565b61176e600083610b5e565b6001600360008373ffffffffffffffffffffffffffffffffffffffff1673ffffffffffffffffffffffffffffffffffffffff16815260200190815260200160002060008282546117be9190612804565b925050819055506002600083815260200190815260200160002060006101000a81549073ffffffffffffffffffffffffffffffffffffffff021916905581600073ffffffffffffffffffffffffffffffffffffffff168273ffffffffffffffffffffffffffffffffffffffff167fddf252ad1be2c89b69c2b068fc378daa952ba7f163c4a11628f55a4df523b3ef60405160405180910390a4611863816000846113ed565b5050565b6000808273ffffffffffffffffffffffffffffffffffffffff163b119050919050565b6060600082036118d1576040518060400160405280600181526020017f300000000000000000000000000000000000000000000000000000000000000081525090506119e5565b600082905060005b600082146119035780806118ec90612df5565b915050600a826118fc9190612e6c565b91506118d9565b60008167ffffffffffffffff81111561191f5761191e611fec565b5b6040519080825280601f01601f1916602001820160405280156119515781602001600182028036833780820191505090505b5090505b600085146119de5760018261196a9190612804565b9150600a856119799190612e9d565b603061198591906126ac565b60f81b81838151811061199b5761199a612ece565b5b60200101907effffffffffffffffffffffffffffffffffffffffffffffffffffffffffffff1916908160001a905350600a856119d79190612e6c565b9450611955565b8093505050505b919050565b600073ffffffffffffffffffffffffffffffffffffffff168273ffffffffffffffffffffffffffffffffffffffff1603611a59576040517f08c379a0000000000000000000000000000000000000000000000000000000008152600401611a5090612f49565b60405180910390fd5b611a6281611283565b15611aa2576040517f08c379a0000000000000000000000000000000000000000000000000000000008152600401611a9990612fb5565b60405180910390fd5b611aae60008383611342565b6001600360008473ffffffffffffffffffffffffffffffffffffffff1673ffffffffffffffffffffffffffffffffffffffff1681526020019081526020016000206000828254611afe91906126ac565b92505081905550816002600083815260200190815260200160002060006101000a81548173ffffffffffffffffffffffffffffffffffffffff021916908373ffffffffffffffffffffffffffffffffffffffff160217905550808273ffffffffffffffffffffffffffffffffffffffff16600073ffffffffffffffffffffffffffffffffffffffff167fddf252ad1be2c89b69c2b068fc378daa952ba7f163c4a11628f55a4df523b3ef60405160405180910390a4611bbf600083836113ed565b5050565b508054611bcf90612306565b6000825580601f10611be15750611c00565b601f016020900490600052602060002090810190611bff9190611c03565b5b50565b5b80821115611c1c576000816000905550600101611c04565b5090565b6000604051905090565b600080fd5b600080fd5b60007fffffffff0000000000000000000000000000000000000000000000000000000082169050919050565b611c6981611c34565b8114611c7457600080fd5b50565b600081359050611c8681611c60565b92915050565b600060208284031215611ca257611ca1611c2a565b5b6000611cb084828501611c77565b91505092915050565b60008115159050919050565b611cce81611cb9565b82525050565b6000602082019050611ce96000830184611cc5565b92915050565b600081519050919050565b600082825260208201905092915050565b60005b83811015611d29578082015181840152602081019050611d0e565b60008484015250505050565b6000601f19601f8301169050919050565b6000611d5182611cef565b611d5b8185611cfa565b9350611d6b818560208601611d0b565b611d7481611d35565b840191505092915050565b60006020820190508181036000830152611d998184611d46565b905092915050565b6000819050919050565b611db481611da1565b8114611dbf57600080fd5b50565b600081359050611dd181611dab565b92915050565b600060208284031215611ded57611dec611c2a565b5b6000611dfb84828501611dc2565b91505092915050565b600073ffffffffffffffffffffffffffffffffffffffff82169050919050565b6000611e2f82611e04565b9050919050565b611e3f81611e24565b82525050565b6000602082019050611e5a6000830184611e36565b92915050565b611e6981611e24565b8114611e7457600080fd5b50565b600081359050611e8681611e60565b92915050565b60008060408385031215611ea357611ea2611c2a565b5b6000611eb185828601611e77565b9250506020611ec285828601611dc2565b9150509250929050565b600080600060608486031215611ee557611ee4611c2a565b5b6000611ef386828701611e77565b9350506020611f0486828701611e77565b9250506040611f1586828701611dc2565b9150509250925092565b600060208284031215611f3557611f34611c2a565b5b6000611f4384828501611e77565b91505092915050565b611f5581611da1565b82525050565b6000602082019050611f706000830184611f4c565b92915050565b611f7f81611cb9565b8114611f8a57600080fd5b50565b600081359050611f9c81611f76565b92915050565b60008060408385031215611fb957611fb8611c2a565b5b6000611fc785828601611e77565b9250506020611fd885828601611f8d565b9150509250929050565b600080fd5b600080fd5b7f4e487b7100000000000000000000000000000000000000000000000000000000600052604160045260246000fd5b61202482611d35565b810181811067ffffffffffffffff8211171561204357612042611fec565b5b80604052505050565b6000612056611c20565b9050612062828261201b565b919050565b600067ffffffffffffffff82111561208257612081611fec565b5b61208b82611d35565b9050602081019050919050565b82818337600083830152505050565b60006120ba6120b584612067565b61204c565b9050828152602081018484840111156120d6576120d5611fe7565b5b6120e1848285612098565b509392505050565b600082601f8301126120fe576120fd611fe2565b5b813561210e8482602086016120a7565b91505092915050565b6000806000806080858703121561213157612130611c2a565b5b600061213f87828801611e77565b945050602061215087828801611e77565b935050604061216187828801611dc2565b925050606085013567ffffffffffffffff81111561218257612181611c2f565b5b61218e878288016120e9565b91505092959194509250565b600067ffffffffffffffff8211156121b5576121b4611fec565b5b6121be82611d35565b9050602081019050919050565b60006121de6121d98461219a565b61204c565b9050828152602081018484840111156121fa576121f9611fe7565b5b612205848285612098565b509392505050565b600082601f83011261222257612221611fe2565b5b81356122328482602086016121cb565b91505092915050565b6000806040838503121561225257612251611c2a565b5b600061226085828601611e77565b925050602083013567ffffffffffffffff81111561228157612280611c2f565b5b61228d8582860161220d565b9150509250929050565b600080604083850312156122ae576122ad611c2a565b5b60006122bc85828601611e77565b92505060206122cd85828601611e77565b9150509250929050565b7f4e487b7100000000000000000000000000000000000000000000000000000000600052602260045260246000fd5b6000600282049050600182168061231e57607f821691505b602082108103612331576123306122d7565b5b50919050565b7f4552433732313a20617070726f76616c20746f2063757272656e74206f776e6560008201527f7200000000000000000000000000000000000000000000000000000000000000602082015250565b6000612393602183611cfa565b915061239e82612337565b604082019050919050565b600060208201905081810360008301526123c281612386565b9050919050565b7f4552433732313a20617070726f76652063616c6c6572206973206e6f7420746f60008201527f6b656e206f776e6572206e6f7220617070726f76656420666f7220616c6c0000602082015250565b6000612425603e83611cfa565b9150612430826123c9565b604082019050919050565b6000602082019050818103600083015261245481612418565b9050919050565b7f4552433732313a2063616c6c6572206973206e6f7420746f6b656e206f776e6560008201527f72206e6f7220617070726f766564000000000000000000000000000000000000602082015250565b60006124b7602e83611cfa565b91506124c28261245b565b604082019050919050565b600060208201905081810360008301526124e6816124aa565b9050919050565b7f4f6e6c79206f776e6572206f662074686520746f6b656e2063616e206275726e60008201527f2069740000000000000000000000000000000000000000000000000000000000602082015250565b6000612549602383611cfa565b9150612554826124ed565b604082019050919050565b600060208201905081810360008301526125788161253c565b9050919050565b7f4552433732313a20696e76616c696420746f6b656e2049440000000000000000600082015250565b60006125b5601883611cfa565b91506125c08261257f565b602082019050919050565b600060208201905081810360008301526125e4816125a8565b9050919050565b7f4552433732313a2061646472657373207a65726f206973206e6f74206120766160008201527f6c6964206f776e65720000000000000000000000000000000000000000000000602082015250565b6000612647602983611cfa565b9150612652826125eb565b604082019050919050565b600060208201905081810360008301526126768161263a565b9050919050565b7f4e487b7100000000000000000000000000000000000000000000000000000000600052601160045260246000fd5b60006126b782611da1565b91506126c283611da1565b92508282019050808211156126da576126d961267d565b5b92915050565b7f4552433732313a207472616e736665722066726f6d20696e636f72726563742060008201527f6f776e6572000000000000000000000000000000000000000000000000000000602082015250565b600061273c602583611cfa565b9150612747826126e0565b604082019050919050565b6000602082019050818103600083015261276b8161272f565b9050919050565b7f4552433732313a207472616e7366657220746f20746865207a65726f2061646460008201527f7265737300000000000000000000000000000000000000000000000000000000602082015250565b60006127ce602483611cfa565b91506127d982612772565b604082019050919050565b600060208201905081810360008301526127fd816127c1565b9050919050565b600061280f82611da1565b915061281a83611da1565b92508282039050818111156128325761283161267d565b5b92915050565b7f4552433732313a20617070726f766520746f2063616c6c657200000000000000600082015250565b600061286e601983611cfa565b915061287982612838565b602082019050919050565b6000602082019050818103600083015261289d81612861565b9050919050565b7f4552433732313a207472616e7366657220746f206e6f6e20455243373231526560008201527f63656976657220696d706c656d656e7465720000000000000000000000000000602082015250565b6000612900603283611cfa565b915061290b826128a4565b604082019050919050565b6000602082019050818103600083015261292f816128f3565b9050919050565b600081905092915050565b600061294c82611cef565b6129568185612936565b9350612966818560208601611d0b565b80840191505092915050565b600061297e8285612941565b915061298a8284612941565b91508190509392505050565b7f45524337323155524953746f726167653a2055524920736574206f66206e6f6e60008201527f6578697374656e7420746f6b656e000000000000000000000000000000000000602082015250565b60006129f2602e83611cfa565b91506129fd82612996565b604082019050919050565b60006020820190508181036000830152612a21816129e5565b9050919050565b60008190508160005260206000209050919050565b60006020601f8301049050919050565b600082821b905092915050565b600060088302612a8a7fffffffffffffffffffffffffffffffffffffffffffffffffffffffffffffffff82612a4d565b612a948683612a4d565b95508019841693508086168417925050509392505050565b6000819050919050565b6000612ad1612acc612ac784611da1565b612aac565b611da1565b9050919050565b6000819050919050565b612aeb83612ab6565b612aff612af782612ad8565b848454612a5a565b825550505050565b600090565b612b14612b07565b612b1f818484612ae2565b505050565b5b81811015612b4357612b38600082612b0c565b600181019050612b25565b5050565b601f821115612b8857612b5981612a28565b612b6284612a3d565b81016020851015612b71578190505b612b85612b7d85612a3d565b830182612b24565b50505b505050565b600082821c905092915050565b6000612bab60001984600802612b8d565b1980831691505092915050565b6000612bc48383612b9a565b9150826002028217905092915050565b612bdd82611cef565b67ffffffffffffffff811115612bf657612bf5611fec565b5b612c008254612306565b612c0b828285612b47565b600060209050601f831160018114612c3e5760008415612c2c578287015190505b612c368582612bb8565b865550612c9e565b601f198416612c4c86612a28565b60005b82811015612c7457848901518255600182019150602085019450602081019050612c4f565b86831015612c915784890151612c8d601f891682612b9a565b8355505b6001600288020188555050505b505050505050565b7f4e6f7420616c6c6f77656420746f207472616e7366657220746f6b656e000000600082015250565b6000612cdc601d83611cfa565b9150612ce782612ca6565b602082019050919050565b60006020820190508181036000830152612d0b81612ccf565b9050919050565b600081519050919050565b600082825260208201905092915050565b6000612d3982612d12565b612d438185612d1d565b9350612d53818560208601611d0b565b612d5c81611d35565b840191505092915050565b6000608082019050612d7c6000830187611e36565b612d896020830186611e36565b612d966040830185611f4c565b8181036060830152612da88184612d2e565b905095945050505050565b600081519050612dc281611c60565b92915050565b600060208284031215612dde57612ddd611c2a565b5b6000612dec84828501612db3565b91505092915050565b6000612e0082611da1565b91507fffffffffffffffffffffffffffffffffffffffffffffffffffffffffffffffff8203612e3257612e3161267d565b5b600182019050919050565b7f4e487b7100000000000000000000000000000000000000000000000000000000600052601260045260246000fd5b6000612e7782611da1565b9150612e8283611da1565b925082612e9257612e91612e3d565b5b828204905092915050565b6000612ea882611da1565b9150612eb383611da1565b925082612ec357612ec2612e3d565b5b828206905092915050565b7f4e487b7100000000000000000000000000000000000000000000000000000000600052603260045260246000fd5b7f4552433732313a206d696e7420746f20746865207a65726f2061646472657373600082015250565b6000612f33602083611cfa565b9150612f3e82612efd565b602082019050919050565b60006020820190508181036000830152612f6281612f26565b9050919050565b7f4552433732313a20746f6b656e20616c7265616479206d696e74656400000000600082015250565b6000612f9f601c83611cfa565b9150612faa82612f69565b602082019050919050565b60006020820190508181036000830152612fce81612f92565b905091905056fea2646970667358221220d7eed17bf8adc5b8634093c666b54504dd3747a5638d0ed83c1f6e7acd9ae42f64736f6c63430008180033",
  "linkReferences": {},
  "deployedLinkReferences": {}
}